{
  "_format": "hh-sol-artifact-1",
  "contractName": "VaccinationRecord",
  "sourceName": "contracts/VaccinationRecord.sol",
  "abi": [
    {
      "anonymous": false,
      "inputs": [
        {
          "indexed": true,
          "internalType": "uint256",
          "name": "recordId",
          "type": "uint256"
        },
        {
          "indexed": false,
          "internalType": "string",
          "name": "rfid",
          "type": "string"
        },
        {
          "indexed": false,
          "internalType": "string",
          "name": "farmerId",
          "type": "string"
        },
        {
          "indexed": false,
          "internalType": "string",
          "name": "vaccineName",
          "type": "string"
        },
        {
          "indexed": false,
          "internalType": "uint256",
          "name": "timestamp",
          "type": "uint256"
        }
      ],
      "name": "RecordAdded",
      "type": "event"
    },
    {
      "inputs": [
        {
          "internalType": "string",
          "name": "_rfid",
          "type": "string"
        },
        {
          "internalType": "string",
          "name": "_farmerId",
          "type": "string"
        },
        {
          "internalType": "string",
          "name": "_farmerName",
          "type": "string"
        },
        {
          "internalType": "string",
          "name": "_vaccineName",
          "type": "string"
        },
        {
          "internalType": "string",
          "name": "_certificateUrl",
          "type": "string"
        }
      ],
      "name": "addRecord",
      "outputs": [
        {
          "internalType": "uint256",
          "name": "recordId",
          "type": "uint256"
        }
      ],
      "stateMutability": "nonpayable",
      "type": "function"
    },
    {
      "inputs": [
        {
          "internalType": "string",
          "name": "_farmerId",
          "type": "string"
        }
      ],
      "name": "getRecordsByFarmer",
      "outputs": [
        {
          "internalType": "uint256[]",
          "name": "",
          "type": "uint256[]"
        }
      ],
      "stateMutability": "view",
      "type": "function"
    },
    {
      "inputs": [
        {
          "internalType": "string",
          "name": "_rfid",
          "type": "string"
        }
      ],
      "name": "getRecordsByRfid",
      "outputs": [
        {
          "internalType": "uint256[]",
          "name": "",
          "type": "uint256[]"
        }
      ],
      "stateMutability": "view",
      "type": "function"
    },
    {
      "inputs": [
        {
          "internalType": "uint256",
          "name": "",
          "type": "uint256"
        }
      ],
      "name": "records",
      "outputs": [
        {
          "internalType": "string",
          "name": "rfid",
          "type": "string"
        },
        {
          "internalType": "string",
          "name": "farmerId",
          "type": "string"
        },
        {
          "internalType": "string",
          "name": "farmerName",
          "type": "string"
        },
        {
          "internalType": "string",
          "name": "vaccineName",
          "type": "string"
        },
        {
          "internalType": "string",
          "name": "certificateUrl",
          "type": "string"
        },
        {
          "internalType": "uint256",
          "name": "timestamp",
          "type": "uint256"
        }
      ],
      "stateMutability": "view",
      "type": "function"
    },
    {
      "inputs": [],
      "name": "totalRecords",
      "outputs": [
        {
          "internalType": "uint256",
          "name": "",
          "type": "uint256"
        }
      ],
      "stateMutability": "view",
      "type": "function"
    }
  ],
  "bytecode": "0x608060405234801561001057600080fd5b506110c2806100206000396000f3fe608060405234801561001057600080fd5b50600436106100575760003560e01c8063125f89741461005c5780632d1814f21461007a57806331d9f258146100aa57806334461067146100da578063a3e59e7c1461010f575b600080fd5b61006461013f565b6040516100719190610859565b60405180910390f35b610094600480360381019061008f91906108e3565b61014b565b6040516100a19190610859565b60405180910390f35b6100c460048036038101906100bf9190610a00565b61045a565b6040516100d19190610b0b565b60405180910390f35b6100f460048036038101906100ef9190610b59565b6104d3565b60405161010696959493929190610c16565b60405180910390f35b61012960048036038101906101249190610a00565b6107c7565b6040516101369190610b0b565b60405180910390f35b60008080549050905090565b60008080549050905060006040518060c001604052808d8d8080601f016020809104026020016040519081016040528093929190818152602001838380828437600081840152601f19601f8201169050808301925050505050505081526020018b8b8080601f016020809104026020016040519081016040528093929190818152602001838380828437600081840152601f19601f82011690508083019250505050505050815260200189898080601f016020809104026020016040519081016040528093929190818152602001838380828437600081840152601f19601f82011690508083019250505050505050815260200187878080601f016020809104026020016040519081016040528093929190818152602001838380828437600081840152601f19601f82011690508083019250505050505050815260200185858080601f016020809104026020016040519081016040528093929190818152602001838380828437600081840152601f19601f82011690508083019250505050505050815260200142815250908060018154018082558091505060019003906000526020600020906006020160009091909190915060008201518160000190816103159190610ed5565b50602082015181600101908161032b9190610ed5565b5060408201518160020190816103419190610ed5565b5060608201518160030190816103579190610ed5565b50608082015181600401908161036d9190610ed5565b5060a08201518160050155505060018b8b60405161038c929190610fe6565b9081526020016040518091039020819080600181540180825580915050600190039060005260206000200160009091909190915055600289896040516103d3929190610fe6565b9081526020016040518091039020819080600181540180825580915050600190039060005260206000200160009091909190915055807fd214125e7988d2836e89425bb3f03e1ec161725a9997c14b764dffa74d60b3cd8c8c8c8c8a8a42604051610444979695949392919061102c565b60405180910390a29a9950505050505050505050565b60606002838360405161046e929190610fe6565b90815260200160405180910390208054806020026020016040519081016040528092919081815260200182805480156104c657602002820191906000526020600020905b8154815260200190600101908083116104b2575b5050505050905092915050565b600081815481106104e357600080fd5b906000526020600020906006020160009150905080600001805461050690610cf8565b80601f016020809104026020016040519081016040528092919081815260200182805461053290610cf8565b801561057f5780601f106105545761010080835404028352916020019161057f565b820191906000526020600020905b81548152906001019060200180831161056257829003601f168201915b50505050509080600101805461059490610cf8565b80601f01602080910402602001604051908101604052809291908181526020018280546105c090610cf8565b801561060d5780601f106105e25761010080835404028352916020019161060d565b820191906000526020600020905b8154815290600101906020018083116105f057829003601f168201915b50505050509080600201805461062290610cf8565b80601f016020809104026020016040519081016040528092919081815260200182805461064e90610cf8565b801561069b5780601f106106705761010080835404028352916020019161069b565b820191906000526020600020905b81548152906001019060200180831161067e57829003601f168201915b5050505050908060030180546106b090610cf8565b80601f01602080910402602001604051908101604052809291908181526020018280546106dc90610cf8565b80156107295780601f106106fe57610100808354040283529160200191610729565b820191906000526020600020905b81548152906001019060200180831161070c57829003601f168201915b50505050509080600401805461073e90610cf8565b80601f016020809104026020016040519081016040528092919081815260200182805461076a90610cf8565b80156107b75780601f1061078c576101008083540402835291602001916107b7565b820191906000526020600020905b81548152906001019060200180831161079a57829003601f168201915b5050505050908060050154905086565b6060600183836040516107db929190610fe6565b908152602001604051809103902080548060200260200160405190810160405280929190818152602001828054801561083357602002820191906000526020600020905b81548152602001906001019080831161081f575b5050505050905092915050565b6000819050919050565b61085381610840565b82525050565b600060208201905061086e600083018461084a565b92915050565b600080fd5b600080fd5b600080fd5b600080fd5b600080fd5b60008083601f8401126108a3576108a261087e565b5b8235905067ffffffffffffffff8111156108c0576108bf610883565b5b6020830191508360018202830111156108dc576108db610888565b5b9250929050565b60008060008060008060008060008060a08b8d03121561090657610905610874565b5b60008b013567ffffffffffffffff81111561092457610923610879565b5b6109308d828e0161088d565b9a509a505060208b013567ffffffffffffffff81111561095357610952610879565b5b61095f8d828e0161088d565b985098505060408b013567ffffffffffffffff81111561098257610981610879565b5b61098e8d828e0161088d565b965096505060608b013567ffffffffffffffff8111156109b1576109b0610879565b5b6109bd8d828e0161088d565b945094505060808b013567ffffffffffffffff8111156109e0576109df610879565b5b6109ec8d828e0161088d565b92509250509295989b9194979a5092959850565b60008060208385031215610a1757610a16610874565b5b600083013567ffffffffffffffff811115610a3557610a34610879565b5b610a418582860161088d565b92509250509250929050565b600081519050919050565b600082825260208201905092915050565b6000819050602082019050919050565b610a8281610840565b82525050565b6000610a948383610a79565b60208301905092915050565b6000602082019050919050565b6000610ab882610a4d565b610ac28185610a58565b9350610acd83610a69565b8060005b83811015610afe578151610ae58882610a88565b9750610af083610aa0565b925050600181019050610ad1565b5085935050505092915050565b60006020820190508181036000830152610b258184610aad565b905092915050565b610b3681610840565b8114610b4157600080fd5b50565b600081359050610b5381610b2d565b92915050565b600060208284031215610b6f57610b6e610874565b5b6000610b7d84828501610b44565b91505092915050565b600081519050919050565b600082825260208201905092915050565b60005b83811015610bc0578082015181840152602081019050610ba5565b60008484015250505050565b6000601f19601f8301169050919050565b6000610be882610b86565b610bf28185610b91565b9350610c02818560208601610ba2565b610c0b81610bcc565b840191505092915050565b600060c0820190508181036000830152610c308189610bdd565b90508181036020830152610c448188610bdd565b90508181036040830152610c588187610bdd565b90508181036060830152610c6c8186610bdd565b90508181036080830152610c808185610bdd565b9050610c8f60a083018461084a565b979650505050505050565b7f4e487b7100000000000000000000000000000000000000000000000000000000600052604160045260246000fd5b7f4e487b7100000000000000000000000000000000000000000000000000000000600052602260045260246000fd5b60006002820490506001821680610d1057607f821691505b602082108103610d2357610d22610cc9565b5b50919050565b60008190508160005260206000209050919050565b60006020601f8301049050919050565b600082821b905092915050565b600060088302610d8b7fffffffffffffffffffffffffffffffffffffffffffffffffffffffffffffffff82610d4e565b610d958683610d4e565b95508019841693508086168417925050509392505050565b6000819050919050565b6000610dd2610dcd610dc884610840565b610dad565b610840565b9050919050565b6000819050919050565b610dec83610db7565b610e00610df882610dd9565b848454610d5b565b825550505050565b600090565b610e15610e08565b610e20818484610de3565b505050565b5b81811015610e4457610e39600082610e0d565b600181019050610e26565b5050565b601f821115610e8957610e5a81610d29565b610e6384610d3e565b81016020851015610e72578190505b610e86610e7e85610d3e565b830182610e25565b50505b505050565b600082821c905092915050565b6000610eac60001984600802610e8e565b1980831691505092915050565b6000610ec58383610e9b565b9150826002028217905092915050565b610ede82610b86565b67ffffffffffffffff811115610ef757610ef6610c9a565b5b610f018254610cf8565b610f0c828285610e48565b600060209050601f831160018114610f3f5760008415610f2d578287015190505b610f378582610eb9565b865550610f9f565b601f198416610f4d86610d29565b60005b82811015610f7557848901518255600182019150602085019450602081019050610f50565b86831015610f925784890151610f8e601f891682610e9b565b8355505b6001600288020188555050505b505050505050565b600081905092915050565b82818337600083830152505050565b6000610fcd8385610fa7565b9350610fda838584610fb2565b82840190509392505050565b6000610ff3828486610fc1565b91508190509392505050565b600061100b8385610b91565b9350611018838584610fb2565b61102183610bcc565b840190509392505050565b6000608082019050818103600083015261104781898b610fff565b9050818103602083015261105c818789610fff565b90508181036040830152611071818587610fff565b9050611080606083018461084a565b9897505050505050505056fea26469706673582212202a5214fbc222947fb41db98232773c947ad4ce1d01ddb4886634aff3db2c979764736f6c63430008140033",
  "linkReferences": {},
  "deployedLinkReferences": {}
}